:100000000C9477010C94670A0C94940A0C94C10A1E
:100010000C94EE0A0C949F010C949F010C941B0B02
:100020000C949F010C949F010C9497080C941E094A
:100030000C949F010C949F010C949F010C949F01C0
:100040000C949F010C949F010C949F010C949F01B0
:100050000C949F010C949F010C949F010C94480BED
:100060000C949F010C94F9030C9434040C949F019C
:100070000C949F010C949F010C949F010C949F0180
:100080000C94BB060C949F010C949F010C94170ECA
:100090000C949F010C949F010C949F010C949F0160
:1000A0000C949F010C949F010C949F01080B00027B
:1000B0000202010009040000010202000005240000
:1000C0001001052401010104240206052406000193
:1000D0000705810310004009040100020A00000026
:1000E00007050202400000070583024000000501E9
:1000F0000902A1010901A1008501050919012903CE
:10010000150025019503750181029501750581038F
:1001100005010930093109381581257F75089503D6
:100120008106C0C005010906A1018502050719E085
:1001300029E71500250175019508810295017508CB
:1001400081039506750815002565050719002965C1
:100150008100C0090402000103000000092101011F
:100160000001226500070584034000010000000033
:10017000000000002A2B2800000000000000000002
:100180000000000000000000000000002C9EB4A051
:10019000A1A2A434A6A7A5AE362D3738271E1F204E
:1001A000212223242526B333B62EB7B89F84858613
:1001B0008788898A8B8C8D8E8F9091929394959657
:1001C0009798999A9B9C9D2F3130A3AD35040506D5
:1001D0000708090A0B0C0D0E0F1011121314151637
:1001E0001718191A1B1C1DAFB1B0B5000403090480
:1001F0002203410072006400750069006E006F0008
:1002000020004C0065006F006E0061007200640009
:100210006F001803410072006400750069006E00F1
:100220006F0020004C004C0043001201000200004F
:10023000004041233680000101020001120100024A
:10024000020000404123368000010102000100C18C
:100250008081C100000000240027002A002D00300A
:100260000000000000250028002B002E00310000B7
:100270000000002300260029002C002F00040404A5
:10028000040403040502020202040302020202063D
:10029000060606060604040202020404080201100F
:1002A00040804010204080408008020401804020AF
:1002B0001002011080102040400000000200080ED3
:1002C0000000030401000B0000000000000000001B
:1002D00000000000000000070605040100080A0BEA
:1002E0000C0D0900EB01F00219056F05D30711246D
:1002F0001FBECFEFDAE0DEBFCDBF11E0A0E0B1E07E
:10030000EAEAFFE102C005900D92A635B107D9F7E0
:1003100012E0A6E5B1E001C01D92A239B107E1F7F4
:1003200012E0CEEED2E004C02297FE010E94CF0F71
:10033000C43ED107C9F70E94B40D0C94D30F0C949E
:100340000000209196013091970180919801909141
:100350009901281B390B2F733070C9010895209122
:1003600096013091970180919801909199012817F9
:10037000390719F42FEF3FEF09C0E0919801F09190
:100380009901EA5AFE4F8081282F30E0C901089573
:100390002091960130919701809198019091990157
:1003A0002817390719F42FEF3FEF13C0E091980198
:1003B000F0919901EA5AFE4F208180919801909125
:1003C000990101968F739070909399018093980191
:1003D00030E0C901089510929D0110929C0188EEB1
:1003E00093E0A0E0B0E080939E0190939F01A093E2
:1003F000A001B093A10182E291E090939B018093D0
:100400009A0108950F931F93DF93CF930F92CDB767
:10041000DEB78C01698380910701882369F083E04E
:10042000BE016F5F7F4F41E050E00E94F207181657
:10043000190614F49C0107C081E090E0F801938351
:10044000828320E030E0C9010F90CF91DF911F91AE
:100450000F91089583E00E94C9070895CF93DF9319
:1004600012C082E00E9454072FEF8F3F9207C9F01D
:10047000E0919601F0919701EA5AFE4F8083D09364
:100480009701C0939601C0919601D0919701219652
:10049000CF73D0708091980190919901C817D907B6
:1004A00001F7DF91CF910895FC0180818E5F8083F9
:1004B00080E86CEA70E042E450E00E946D07089525
:1004C000FC0181819081913A59F4813209F04CC04C
:1004D00080E060E071E047E050E00E946D0742C0BC
:1004E000913209F041C0803239F480E091E067E058
:1004F00070E00E94B10736C0823209F035C08281B7
:10050000809307018091000190910101A091020167
:10051000B0910301805B9440A040B04019F58091F8
:10052000070180FD12C087E797E790930108809349
:1005300000082BE088E190E00FB6F894A89580932E
:1005400060000FBE209360000DC088E10FB6F894E4
:1005500080936000109260000FBEA8951092010871
:100560001092000881E0089580E00895FC019181D7
:100570008081813A31F4913089F080E0933089F4C0
:100580000DC0813269F49B3021F48281809308018F
:1005900005C09A3029F482818093090181E0089591
:1005A00080E00895EF92FF920F931F938C01E62E47
:1005B000DC01ED91FC910480F581E02D0995F82E88
:1005C000D801ED91FC910680F781E02DC8016E2DD8
:1005D00009958F2D90E01F910F91FF90EF90089556
:1005E0001092A8011092AC011092AB0184E391E04B
:1005F0009093AA018093A9010895EF92FF920F931F
:100600001F93DF93CF930F92CDB7DEB789838B0112
:100610007A0184E0BE016F5F7F4F41E050E00E94AD
:10062000F20784E4B801A7010E94F2070F90CF916E
:10063000DF911F910F91FF90EF90089582E048E0C5
:1006400050E00E94FD020895FC0116821782108678
:1006500011861286138614823496BF010E941E03EF
:100660000895DC01683810F0685829C0E62FF0E0E2
:1006700067FF13C0E058F04081E090E002C0880FAF
:10068000991FEA95E2F7809514962C9114972823E8
:1006900014962C93149760E012C0E459FE4F6491B5
:1006A000662319F420E030E01DC067FF08C01496EF
:1006B0008C9114978D7F14968C9314976F77FD010E
:1006C00090E0662321F08681861709F416829F5FE9
:1006D00031969630B1F7CD011496BD010E941E03EC
:1006E00021E030E0C9010895CF93DF93DC01683841
:1006F00010F0685825C0E62FF0E067FF12C0E05800
:10070000F04081E090E002C0880F991FEA95E2F77F
:1007100014962C911497282B14962C93149760E020
:100720000FC0E459FE4F64916623D9F167FF08C0FA
:1007300014968C911497826014968C9314976F770B
:1007400016968C9116978617A9F117968C91179784
:10075000861781F118968C911897861759F119967A
:100760008C911997861731F11A968C911A978617E2
:1007700009F11B968C911B978617E1F0ED01E0E0E3
:10078000F0E09E2F8E81882321F4EA0FFB1F668301
:1007900006C09F5F31962196E630F10591F79630BD
:1007A00049F481E090E013969C938E93129720E099
:1007B00030E007C0CD011496BD010E941E0321E068
:1007C00030E0C901DF91CF91089580E86EEE70E0CE
:1007D00045E650E00E946D070895FC0180818F5F1F
:1007E000808380E863E571E049E150E00E946D0795
:1007F00008951F920F920FB60F9211242F933F93DB
:100800004F938F939F93EF93FF938091C80082FD46
:100810001DC04091CE002091F5013091F6012F5F6F
:100820003F4F2F7330708091F7019091F801281796
:10083000390771F0E091F501F091F601EB54FE4FAC
:1008400040833093F6012093F50102C08091CE00E1
:10085000FF91EF919F918F914F913F912F910F9029
:100860000FBE0F901F9018951F920F920FB60F9208
:1008700011242F933F938F939F93EF93FF93209196
:10088000390230913A0280913B0290913C02281744
:10089000390731F48091C9008F7D8093C90014C05D
:1008A000E0913B02F0913C02E750FE4F20818091A5
:1008B0003B0290913C0201968F73907090933C02A2
:1008C00080933B022093CE00FF91EF919F918F91F7
:1008D0003F912F910F900FBE0F901F901895DC0144
:1008E0001C96ED91FC911D97E05CFF4F2191319199
:1008F00080819181281B390B2F733070C9010895B5
:10090000DC011C96ED91FC911D97E05CFF4F20816E
:100910003181E054F040DF01AE5BBF4F8D919C917F
:1009200011972817390719F42FEF3FEF07C08D9162
:100930009C91E80FF91F8081282F30E0C9010895AC
:10094000DC011C96ED91FC911D97E05CFF4F20812E
:100950003181E054F040DF01AE5BBF4F8D919C913F
:1009600011972817390719F42FEF3FEF10C08D9119
:100970009C911197E80FF91F20818D919C911197FF
:1009800001968F73907011969C938E9330E0C901FD
:100990000895DC0191968C919197882339F05496B3
:1009A000ED91FC915597808186FFF9CF91961C922D
:1009B0000895CF93DF93EC01EE85FF85E05CFF4F58
:1009C00020813181E054F0402F5F3F4F2F73307012
:1009D000DF01AE5BBF4F8D919C91119728173907AE
:1009E000D1F3E05CFF4F80819181E054F040E80F4B
:1009F000F91F6083EE85FF85E05CFF4F3183208324
:100A0000EE89FF89208181E090E00F8C02C0880F81
:100A1000991F0A94E2F7282B208381E089A3EC89AF
:100A2000FD8980818064808381E090E0DF91CF91B7
:100A300008951092400210923F0288EE93E0A0E0E9
:100A4000B0E08093410290934202A0934302B0939E
:100A5000440282E491E090933E0280933D0285EB54
:100A600091E090934A028093490289EF91E090933C
:100A70004C0280934B028DEC90E090934E02809359
:100A80004D028CEC90E09093500280934F0288ECE2
:100A900090E0909352028093510289EC90E0909301
:100AA0005402809353028AEC90E090935602809314
:100AB00055028EEC90E0909358028093570284E0A8
:100AC0008093590283E080935A0287E080935B020F
:100AD00085E080935C0281E080935D02089582E569
:100AE00091E09093600280935F02109261021092F5
:100AF0006202109263021092640208958F929F9294
:100B0000AF92BF92CF92DF92EF92FF920F931F931B
:100B1000CF93DF934C016B017C01AA24BB24C0E07E
:100B2000D0E0C601F70162814AE050E00E948106F0
:100B30008C01C6016EE20E94EA05080F191FA00E83
:100B4000B11E21960894E11CF11CC330D10549F770
:100B5000C601F40165814AE050E00E9481069501DA
:100B6000280F391FC901DF91CF911F910F91FF907D
:100B7000EF90DF90CF90BF90AF909F908F900895AF
:100B8000CF92DF92EF92FF920F931F93CF93DF9359
:100B90007C016B018A01C0E0D0E00FC0D6016D91ED
:100BA0006D01D701ED91FC910190F081E02DC7011D
:100BB0000995C80FD91F015010400115110571F793
:100BC000CE01DF91CF911F910F91FF90EF90DF90B9
:100BD000CF900895DC01ED91FC910190F081E02D22
:100BE00009950895CF93DF93EC016115710519F410
:100BF00020E030E00FC0DB010D900020E9F71197F5
:100C0000A61BB70BE881F9810280F381E02DAD01CD
:100C100009959C01C901DF91CF9108954F925F9290
:100C20007F928F929F92AF92BF92CF92DF92EF927C
:100C3000FF920F931F93DF93CF93CDB7DEB7A197AA
:100C40000FB6F894DEBF0FBECDBF2C01742ECB01C2
:100C5000223008F42AE019A231E2C32ED12CCC0EA6
:100C6000DD1E822E9924AA24BB24672D752FA50191
:100C700094010E94AB0F79018A01C801B701A50157
:100C800094010E948C0F472D461B0894C108D1087F
:100C90004A3014F4405D01C0495CF6014083E11420
:100CA000F1040105110521F07E2C5F2DC801DDCF77
:100CB000C201B6010E94F205A1960FB6F894DEBFFC
:100CC0000FBECDBFCF91DF911F910F91FF90EF909D
:100CD000DF90CF90BF90AF909F908F907F905F906C
:100CE0004F900895DC012115310541F4ED91FC91FF
:100CF0000190F081E02D642F099508950E940E0661
:100D00000895EF92FF920F931F939A01E62EFF240E
:100D100000E010E0B801A7010E9472061F910F9138
:100D2000FF90EF9008958230B9F0833028F4882343
:100D300051F08130F9F40AC08430B9F0843090F079
:100D40008530C1F415C010926E00089580916F0037
:100D50008D7F80936F000895809170008D7F8093C8
:100D60007000089510927100089510927200089515
:100D70001092730008951F920F920FB60F921124D4
:100D80002F933F934F935F936F937F938F939F9393
:100D9000AF93BF93EF93FF938091650290916602AA
:100DA000A0916702B09168020097A105B10551F1C9
:100DB000E0916902F0916A02808190916B0289272B
:100DC00080838091650290916602A0916702B09144
:100DD0006802181619061A061B060CF580916502A2
:100DE00090916602A0916702B09168020197A109F3
:100DF000B1098093650290936602A0936702B09355
:100E000068020DC083E00E949306E0916902F091B0
:100E10006A02908180916B02809589238083FF9183
:100E2000EF91BF91AF919F918F917F916F915F9162
:100E30004F913F912F910F900FBE0F901F901895DB
:100E4000282F80916E028823C1F057FF1AC015C069
:100E5000289890936D028091F1008193E217F30737
:100E6000B9F74115510539F08091F200882319F442
:100E70008BE68093E800AFBF02C04FEF5FEFCA017F
:100E80000895AFB7F89427702093E9008091F2009D
:100E9000282F30E0241735070CF4A901FB019B0132
:100EA000240F311D94E6DACFDF93CF930F92CDB7A5
:100EB000DEB7BE016F5F7F4F41E050E00E94200728
:100EC000019719F02FEF3FEF03C08981282F30E001
:100ED000C9010F90CF91DF910895FF920F931F9357
:100EE000F82E142F052F4091710250917202212F7C
:100EF000302FC901DC01FB016EEF29C0F7FE02C0F3
:100F0000949101C0908120916F023091700224175A
:100F10003507ACF48091E8008570E1F38091E8003A
:100F200082FF03C02FEF3FEF17C09093F100C9017C
:100F300001968F739070892B11F46093E8002F5FF6
:100F40003F4F3093700220936F02119731961097A4
:100F5000A9F6812F902F9C01C9011F910F91FF903D
:100F600008959C018091E80082FFFCCFF901260FD3
:100F7000311D03C08091F1008193E217F307D1F78F
:100F8000289884E680936D028BEF8093E800CB0174
:100F900008958093E9008091F200882319F08AE394
:100FA0008093E8000895089510926E0281E0809386
:100FB000D70080EA8093D80082E189BD09B400FEA1
:100FC000FDCF61E070E080E090E00E94900B80E94E
:100FD0008093D8008CE08093E2001092E000559A54
:100FE000209A08955F926F927F928F929F92AF9214
:100FF000BF92CF92DF92EF92FF920F931F93CF9306
:10100000DF93E82E842E752E80916E02882371F175
:101010008B01242F352FC901EC017AEFF72E67E001
:10102000962E9E2050E4552E8E2D90E040E2A42E68
:10103000B12CA822B9223AE3632E20E4C22ED12C8F
:10104000C822D92258C09FB7F8949092E9008091A5
:10105000E80085FD02C020E004C08091F200252D4B
:10106000281B9FBF222361F4FA9419F42FEF3FEF5E
:101070004DC061E070E080E090E00E94900B3BC0CA
:10108000822F90E0C817D9070CF42C2FC21BD1096E
:101090004FB7F8949092E900A114B10421F406C06E
:1010A0001092F10021502223D9F719C0E7FC03C0A8
:1010B000F801922F10C0C801322F06C0FC01019622
:1010C000E491E093F10031503323C1F706C08191E0
:1010D0008093F10091509923D1F7020F111D809157
:1010E000E80085FF05C0209729F4C114D10411F050
:1010F0006092E8004FBF209709F0A5CF5D9884E685
:1011000080936C02282D372DC9019C01C901DF9104
:10111000CF911F910F91FF90EF90DF90CF90BF90F4
:10112000AF909F908F907F906F905F9008951F92E7
:101130000F920FB60F9211242F933F934F935F930B
:101140006F937F938F939F93AF93BF93EF93FF938F
:101150008091E1001092E100982F83FF0FC0109260
:10116000E90081E08093EB001092EC0082E3809331
:10117000ED0010926E0288E08093F00092FF34C080
:1011800083E08093E9008091F200882319F08AE3DC
:101190008093E8008FB7F89492E09093E9009091E3
:1011A000F2008FBF992321F08AE991E00E942E027C
:1011B00080916C02882351F080916C028150809361
:1011C0006C0280916C02882309F45D9A80916D0213
:1011D000882351F080916D02815080936D0280913F
:1011E0006D02882309F4289AFF91EF91BF91AF9186
:1011F0009F918F917F916F915F914F913F912F912F
:101200000F900FBE0F901F9018950F931F93DF93B1
:10121000CF930F92CDB7DEB719828E010F5F1F4FAC
:10122000C8010E945402C8010E94ED03898190E028
:101230000F90CF91DF911F910F9108951F920F9200
:101240000FB60F921124EF92FF921F932F933F93AB
:101250004F935F936F937F938F939F93AF93BF93BE
:10126000EF93FF93DF93CF93CDB7DEB76197DEBFE8
:10127000CDBF1092E9008091E80083FF0FC1FE010D
:1012800031969E01275F3F4F03C08091F10081930B
:10129000E217F307D1F7289884E680936D0282EF76
:1012A0008093E800998197FF05C08091E80080FF56
:1012B000FCCF03C08EEF8093E800292F30E0C901F6
:1012C00080769070892B09F0C2C08A81882329F426
:1012D0001092F1001092F100D6C0813009F4D3C011
:1012E000833009F4D0C0853049F48091E80080FF54
:1012F000FCCF8B8180688093E300C5C0863009F005
:101300007CC01C81EF80F8841230C1F51092E90096
:101310001092700210926F0210927202109271027B
:101320000E94050999E0FE013996DF01292F1D92DF
:101330002A95E9F799871A8791E09E8790E8988B1C
:101340009AEF998B20916F0230917002275F3F4F87
:101350003C872B878D871092E900109270021092C3
:101360006F02F0927202E092710280E0BF0149E0E8
:1013700050E00E946D070E94050985C01092E900A7
:101380001092700210926F02F0927202E09271025B
:10139000123241F482E290E00E94E503892B09F4C5
:1013A00076C071C0113079F488E0E816F10419F4C0
:1013B00081E08093730280917302882309F06BC0EF
:1013C000EAE2F2E013C0133009F061C08B81882398
:1013D00019F4ECEEF1E00AC0823019F4E0EFF1E02C
:1013E00005C0813009F053C0E2E1F2E0449180E8A9
:1013F000BF0150E00E946D0746C0873009F447C026
:10140000883021F481E08093F1003DC08930D9F526
:1014100023703070232BD9F5EFE4F2E091E031E056
:1014200026E39093E9003093EB0084918093EC00E5
:101430002093ED009F5F3196953099F78EE780936A
:10144000EA001092EA008B8180936E021CC08F81AB
:1014500098851092E9001092700210926F0290939A
:101460007202809371028D81882329F4CE01019646
:101470000E94600206C0823051F4CE0101960E94A3
:10148000B602882321F08EEF8093E80007C081E246
:101490008093EB0003C0ECE3F2E0A8CF6196DEBFDF
:1014A000CDBFCF91DF91FF91EF91BF91AF919F9110
:1014B0008F917F916F915F914F913F912F911F91EC
:1014C000FF90EF900F900FBE0F901F9018951F92F6
:1014D0000F920FB60F9211242F933F934F935F9368
:1014E0006F937F938F939F93AF93BF93EF93FF93EC
:1014F0008091750290917602892B29F0E091750216
:10150000F09176020995FF91EF91BF91AF919F9174
:101510008F917F916F915F914F913F912F910F909C
:101520000FBE0F901F9018951F920F920FB60F923B
:1015300011242F933F934F935F936F937F938F93D8
:101540009F93AF93BF93EF93FF9380917702909116
:101550007802892B29F0E0917702F09178020995C1
:10156000FF91EF91BF91AF919F918F917F916F917B
:101570005F914F913F912F910F900FBE0F901F9051
:1015800018951F920F920FB60F9211242F933F932D
:101590004F935F936F937F938F939F93AF93BF937B
:1015A000EF93FF938091790290917A02892B29F031
:1015B000E0917902F0917A020995FF91EF91BF9144
:1015C000AF919F918F917F916F915F914F913F91DB
:1015D0002F910F900FBE0F901F9018951F920F9292
:1015E0000FB60F9211242F933F934F935F936F93F6
:1015F0007F938F939F93AF93BF93EF93FF938091CC
:101600007B0290917C02892B29F0E0917B02F09182
:101610007C020995FF91EF91BF91AF919F918F91BE
:101620007F916F915F914F913F912F910F900FBEDE
:101630000F901F9018951F920F920FB60F921124C2
:101640002F933F934F935F936F937F938F939F93CA
:10165000AF93BF93EF93FF9380917D0290917E02B1
:10166000892B29F0E0917D02F0917E020995FF918E
:10167000EF91BF91AF919F918F917F916F915F910A
:101680004F913F912F910F900FBE0F901F90189583
:101690001F920F920FB60F9211242F933F938F93A7
:1016A0009F93AF93BF938091830290918402A09106
:1016B0008502B0918602309187020196A11DB11D6D
:1016C000232F2D5F2D3720F02D570196A11DB11D21
:1016D000209387028093830290938402A0938502D3
:1016E000B093860280917F0290918002A091810246
:1016F000B09182020196A11DB11D80937F0290934B
:101700008002A0938102B0938202BF91AF919F911A
:101710008F913F912F910F900FBE0F901F901895B2
:101720009B01AC017FB7F89480917F029091800279
:10173000A0918102B091820266B5A89B05C06F3F5F
:1017400019F00196A11DB11D7FBFBA2FA92F982FA7
:101750008827860F911DA11DB11D62E0880F991F7A
:10176000AA1FBB1F6A95D1F7BC012DC0FFB7F89423
:1017700080917F0290918002A0918102B0918202BB
:10178000E6B5A89B05C0EF3F19F00196A11DB11D5C
:10179000FFBFBA2FA92F982F88278E0F911DA11D4B
:1017A000B11DE2E0880F991FAA1FBB1FEA95D1F770
:1017B000861B970B885E9340C8F221503040404012
:1017C000504068517C4F211531054105510571F696
:1017D0000895789484B5826084BD84B5816084BDA9
:1017E00085B5826085BD85B5816085BDEEE6F0E09A
:1017F000808181608083E1E8F0E0108280818260F6
:101800008083808181608083E0E8F0E08081816076
:101810008083E1E9F0E08081826080838081816063
:101820008083E0E9F0E0808181608083E1ECF0E09A
:1018300080818460808380818260808380818160F8
:101840008083E3ECF0E0808181608083E0ECF0E075
:10185000808182608083E2ECF0E08081816080831F
:10186000EAE7F0E080818460808380818260808309
:101870008081816080838081806880830895CF9398
:10188000DF93482F50E0CA0185569D4FFC013491EB
:1018900043585D4FFA018491882369F190E0880FE5
:1018A000991FFC01ED5AFD4FA591B491FC01EF5930
:1018B000FD4FC591D491662351F42FB7F8948C91C4
:1018C000932F909589238C93888189230BC0623054
:1018D00061F42FB7F8948C91932F909589238C9372
:1018E0008881832B88832FBF06C09FB7F8948C9183
:1018F000832B8C939FBFDF91CF910895883071F136
:10190000893068F4823031F1833020F4813009F07D
:1019100042C01DC0833089F08430E9F512C08B309D
:1019200059F18C3028F48930E9F08A30A1F51EC0D5
:101930008C3031F18E3079F529C0809180008F771D
:1019400003C0809180008F7D80938000089584B5CE
:101950008F7702C084B58F7D84BD089580919000FB
:101960008F7707C0809190008F7D03C08091900099
:10197000877F8093900008958091C0008F7703C087
:101980008091C0008F7D8093C00008958091C20037
:10199000877F8093C2000895FF920F931F93F62EC6
:1019A000482F50E0CA0187549D4FFC012491CA0181
:1019B00085569D4FFC01149143585D4FFA010491E7
:1019C0000023C9F0222319F0822F0E947E0CE02F01
:1019D000F0E0EE0FFF1FEF59FD4FA591B4919FB7B7
:1019E000F894FF2021F48C911095812302C08C91F2
:1019F000812B8C939FBF1F910F91FF90089584E7D7
:101A000092E00E94D40708950895089510929102DB
:101A10001092900210928C0210928D0210928E02FF
:101A200010928F0280910A0161E00E943F0C109297
:101A30008C0210928D0210928E0210928F020895E5
:101A40006F927F928F929F92AF92BF92CF92DF92CE
:101A5000EF92FF920F931F93E0908C02F0908D0213
:101A600000918E0210918F02C801B7010E94D80E1A
:101A70003B014C0120911601309117014091180152
:101A8000509119010E94A60E88235CF417FD09C02D
:101A9000A0900E01B0900F01C0901001D0901101E4
:101AA0000AC00F2EF0E0AF2EF0E0BF2EF0E0CF2EF8
:101AB000F0E0DF2EF02D6091120170911301809102
:101AC00014019091150120E030E040E85FE30E94AE
:101AD000410E9B01AC01C401B3010E94880F882311
:101AE0004CF010928C0210928D0210928E02109285
:101AF0008F020DC00894E11CF11C011D111DE09224
:101B00008C02F0928D0200938E0210938F02C60118
:101B1000B50120E030E040E853E40E94A60E87FDC6
:101B200002C06FEF10C0C601B50120E030E040E018
:101B300050E00E94880F87FF02C060E004C0C60129
:101B4000B5010E94AA0E80910A010E94CC0C1F913F
:101B50000F91FF90EF90DF90CF90BF90AF909F904C
:101B60008F907F906F9008950E94E90B0E94FF0C68
:101B70000E94060D8BEC93EF909395008093940058
:101B8000809171008E7F80937100809190008C7F96
:101B90008093900080919100877E80939100809146
:101BA0009100846080939100809191008C7F80935C
:101BB000910080917100816080937100E0915401E7
:101BC000F091550180819181892BE1F30E94050DEF
:101BD000F89480E090E0089520918A022F5F20938E
:101BE0008A02215049F081E090E09093890280932D
:101BF000880220938A02089578940E94200D0E9402
:101C0000040DF89420918A02215020938A02909129
:101C10008B02992359F080918B02882339F47894B0
:101C2000F894915090938B0220938A0208951F920A
:101C30000F920FB60F9211242F933F934F935F9300
:101C40006F937F938F939F93AF93BF93EF93FF9384
:101C50008BEC93EF90939500809394000E94EC0D91
:101C6000FF91EF91BF91AF919F918F917F916F9174
:101C70005F914F913F912F910F900FBE0F901F904A
:101C800018955058BB27AA270ED008C1F9D030F0BC
:101C9000FED020F031F49F3F11F41EF4EEC00EF49C
:101CA000E095E7FBE4C0E92F0AD180F3BA17620799
:101CB00073078407950718F071F49EF522C10EF49E
:101CC000E0950B2EBA2FA02D0B01B90190010C014C
:101CD000CA01A0011124FF27591B99F0593F50F464
:101CE000503E68F11A16F040A22F232F342F4427BC
:101CF000585FF3CF469537952795A795F0405395B4
:101D0000C9F77EF41F16BA0B620B730B840BBAF083
:101D10009150A1F0FF0FBB1F661F771F881FC2F7EE
:101D20000EC0BA0F621F731F841F48F48795779502
:101D30006795B795F7959E3F08F0B3CF9395880FB9
:101D400008F09927EE0F9795879508956CD008F4C1
:101D500081E00895BCD088F09F5790F0B92F992763
:101D6000B751A0F0D1F0660F771F881F991F1AF0A6
:101D7000BA95C9F712C0B13081F0C3D0B1E008956F
:101D8000C0C0672F782F8827B85F39F0B93FCCF3F0
:101D9000869577956795B395D9F73EF4909580959C
:101DA000709561957F4F8F4F9F4F0895E89409C0BC
:101DB00097FB3EF490958095709561957F4F8F4F7E
:101DC0009F4F9923A9F0F92F96E9BB279395F69594
:101DD000879577956795B795F111F8CFFAF4BB0F12
:101DE00011F460FF1BC06F5F7F4F8F4F9F4F16C076
:101DF000882311F096E911C0772321F09EE8872F00
:101E0000762F05C0662371F096E8862F70E060E0BB
:101E10002AF09A95660F771F881FDAF7880F969534
:101E2000879597F90895990F0008550FAA0BE0E8D8
:101E3000FEEF16161706E807F907C0F0121613068C
:101E4000E407F50798F0621B730B840B950B39F4CC
:101E50000A2661F0232B242B252B21F408950A2632
:101E600009F4A140A6958FEF811D811D089597F972
:101E70009F6780E870E060E008959FEF80EC089530
:101E800000240A9416161706180609060895002459
:101E90000A9412161306140605060895092E0394D3
:101EA000000C11F4882352F0BB0F40F4BF2B11F447
:101EB00060FF04C06F5F7F4F8F4F9F4F089557FDA6
:101EC0009058440F551F59F05F3F71F04795880FA8
:101ED00097FB991F61F09F3F79F08795089512163F
:101EE00013061406551FF2CF4695F1DF08C01616EB
:101EF00017061806991FF1CF86957105610508949C
:101F00000895E894BB2766277727CB0197F90895B2
:101F10008ADF08F48FEF0895629FD001739FF0016C
:101F2000829FE00DF11D649FE00DF11D929FF00D69
:101F3000839FF00D749FF00D659FF00D9927729FA0
:101F4000B00DE11DF91F639FB00DE11DF91FBD012B
:101F5000CF0111240895A1E21A2EAA1BBB1BFD017B
:101F60000DC0AA1FBB1FEE1FFF1FA217B307E40778
:101F7000F50720F0A21BB30BE40BF50B661F771FD0
:101F8000881F991F1A9469F76095709580959095B0
:101F90009B01AC01BD01CF010895EE0FFF1F05901D
:0A1FA000F491E02D0994F894FFCFAE
:101FAA0000E100000000000001010900000000003B
:101FBA00803F000020410000A04000000000000017
:101FCA0000000202C005A101C801AF012A022E02C7
:101FDA0000000000D202C00574033103240300008C
:101FEA000000D904C0056F04A0048004C9040000DD
:061FFA0000007E059002CC
:00000001FF
